{
  "_format": "hh-sol-artifact-1",
  "contractName": "OnChainNFT",
  "sourceName": "contracts/Lock.sol",
  "abi": [
    {
      "inputs": [],
      "stateMutability": "nonpayable",
      "type": "constructor"
    },
    {
      "anonymous": false,
      "inputs": [
        {
          "indexed": true,
          "internalType": "address",
          "name": "owner",
          "type": "address"
        },
        {
          "indexed": true,
          "internalType": "address",
          "name": "approved",
          "type": "address"
        },
        {
          "indexed": true,
          "internalType": "uint256",
          "name": "tokenId",
          "type": "uint256"
        }
      ],
      "name": "Approval",
      "type": "event"
    },
    {
      "anonymous": false,
      "inputs": [
        {
          "indexed": true,
          "internalType": "address",
          "name": "owner",
          "type": "address"
        },
        {
          "indexed": true,
          "internalType": "address",
          "name": "operator",
          "type": "address"
        },
        {
          "indexed": false,
          "internalType": "bool",
          "name": "approved",
          "type": "bool"
        }
      ],
      "name": "ApprovalForAll",
      "type": "event"
    },
    {
      "anonymous": false,
      "inputs": [
        {
          "indexed": false,
          "internalType": "uint256",
          "name": "tokenId",
          "type": "uint256"
        }
      ],
      "name": "Minted",
      "type": "event"
    },
    {
      "anonymous": false,
      "inputs": [
        {
          "indexed": true,
          "internalType": "address",
          "name": "previousOwner",
          "type": "address"
        },
        {
          "indexed": true,
          "internalType": "address",
          "name": "newOwner",
          "type": "address"
        }
      ],
      "name": "OwnershipTransferred",
      "type": "event"
    },
    {
      "anonymous": false,
      "inputs": [
        {
          "indexed": true,
          "internalType": "address",
          "name": "from",
          "type": "address"
        },
        {
          "indexed": true,
          "internalType": "address",
          "name": "to",
          "type": "address"
        },
        {
          "indexed": true,
          "internalType": "uint256",
          "name": "tokenId",
          "type": "uint256"
        }
      ],
      "name": "Transfer",
      "type": "event"
    },
    {
      "inputs": [
        {
          "internalType": "address",
          "name": "to",
          "type": "address"
        },
        {
          "internalType": "uint256",
          "name": "tokenId",
          "type": "uint256"
        }
      ],
      "name": "approve",
      "outputs": [],
      "stateMutability": "nonpayable",
      "type": "function"
    },
    {
      "inputs": [
        {
          "internalType": "address",
          "name": "owner",
          "type": "address"
        }
      ],
      "name": "balanceOf",
      "outputs": [
        {
          "internalType": "uint256",
          "name": "",
          "type": "uint256"
        }
      ],
      "stateMutability": "view",
      "type": "function"
    },
    {
      "inputs": [
        {
          "internalType": "string",
          "name": "imageURI",
          "type": "string"
        }
      ],
      "name": "formatTokenURI",
      "outputs": [
        {
          "internalType": "string",
          "name": "",
          "type": "string"
        }
      ],
      "stateMutability": "pure",
      "type": "function"
    },
    {
      "inputs": [
        {
          "internalType": "uint256",
          "name": "tokenId",
          "type": "uint256"
        }
      ],
      "name": "getApproved",
      "outputs": [
        {
          "internalType": "address",
          "name": "",
          "type": "address"
        }
      ],
      "stateMutability": "view",
      "type": "function"
    },
    {
      "inputs": [
        {
          "internalType": "address",
          "name": "owner",
          "type": "address"
        },
        {
          "internalType": "address",
          "name": "operator",
          "type": "address"
        }
      ],
      "name": "isApprovedForAll",
      "outputs": [
        {
          "internalType": "bool",
          "name": "",
          "type": "bool"
        }
      ],
      "stateMutability": "view",
      "type": "function"
    },
    {
      "inputs": [
        {
          "internalType": "string",
          "name": "svg",
          "type": "string"
        }
      ],
      "name": "mint",
      "outputs": [],
      "stateMutability": "nonpayable",
      "type": "function"
    },
    {
      "inputs": [],
      "name": "name",
      "outputs": [
        {
          "internalType": "string",
          "name": "",
          "type": "string"
        }
      ],
      "stateMutability": "view",
      "type": "function"
    },
    {
      "inputs": [],
      "name": "owner",
      "outputs": [
        {
          "internalType": "address",
          "name": "",
          "type": "address"
        }
      ],
      "stateMutability": "view",
      "type": "function"
    },
    {
      "inputs": [
        {
          "internalType": "uint256",
          "name": "tokenId",
          "type": "uint256"
        }
      ],
      "name": "ownerOf",
      "outputs": [
        {
          "internalType": "address",
          "name": "",
          "type": "address"
        }
      ],
      "stateMutability": "view",
      "type": "function"
    },
    {
      "inputs": [],
      "name": "renounceOwnership",
      "outputs": [],
      "stateMutability": "nonpayable",
      "type": "function"
    },
    {
      "inputs": [
        {
          "internalType": "address",
          "name": "from",
          "type": "address"
        },
        {
          "internalType": "address",
          "name": "to",
          "type": "address"
        },
        {
          "internalType": "uint256",
          "name": "tokenId",
          "type": "uint256"
        }
      ],
      "name": "safeTransferFrom",
      "outputs": [],
      "stateMutability": "nonpayable",
      "type": "function"
    },
    {
      "inputs": [
        {
          "internalType": "address",
          "name": "from",
          "type": "address"
        },
        {
          "internalType": "address",
          "name": "to",
          "type": "address"
        },
        {
          "internalType": "uint256",
          "name": "tokenId",
          "type": "uint256"
        },
        {
          "internalType": "bytes",
          "name": "data",
          "type": "bytes"
        }
      ],
      "name": "safeTransferFrom",
      "outputs": [],
      "stateMutability": "nonpayable",
      "type": "function"
    },
    {
      "inputs": [
        {
          "internalType": "address",
          "name": "operator",
          "type": "address"
        },
        {
          "internalType": "bool",
          "name": "approved",
          "type": "bool"
        }
      ],
      "name": "setApprovalForAll",
      "outputs": [],
      "stateMutability": "nonpayable",
      "type": "function"
    },
    {
      "inputs": [
        {
          "internalType": "bytes4",
          "name": "interfaceId",
          "type": "bytes4"
        }
      ],
      "name": "supportsInterface",
      "outputs": [
        {
          "internalType": "bool",
          "name": "",
          "type": "bool"
        }
      ],
      "stateMutability": "view",
      "type": "function"
    },
    {
      "inputs": [
        {
          "internalType": "string",
          "name": "svg",
          "type": "string"
        }
      ],
      "name": "svgToImageURI",
      "outputs": [
        {
          "internalType": "string",
          "name": "",
          "type": "string"
        }
      ],
      "stateMutability": "pure",
      "type": "function"
    },
    {
      "inputs": [],
      "name": "symbol",
      "outputs": [
        {
          "internalType": "string",
          "name": "",
          "type": "string"
        }
      ],
      "stateMutability": "view",
      "type": "function"
    },
    {
      "inputs": [
        {
          "internalType": "uint256",
          "name": "tokenId",
          "type": "uint256"
        }
      ],
      "name": "tokenURI",
      "outputs": [
        {
          "internalType": "string",
          "name": "",
          "type": "string"
        }
      ],
      "stateMutability": "view",
      "type": "function"
    },
    {
      "inputs": [
        {
          "internalType": "address",
          "name": "from",
          "type": "address"
        },
        {
          "internalType": "address",
          "name": "to",
          "type": "address"
        },
        {
          "internalType": "uint256",
          "name": "tokenId",
          "type": "uint256"
        }
      ],
      "name": "transferFrom",
      "outputs": [],
      "stateMutability": "nonpayable",
      "type": "function"
    },
    {
      "inputs": [
        {
          "internalType": "address",
          "name": "newOwner",
          "type": "address"
        }
      ],
      "name": "transferOwnership",
      "outputs": [],
      "stateMutability": "nonpayable",
      "type": "function"
    }
  ],
  "bytecode": "0x60806040523480156200001157600080fd5b506040518060400160405280600a81526020017f426c6f636b6368616d70000000000000000000000000000000000000000000008152506040518060400160405280600381526020017f424c430000000000000000000000000000000000000000000000000000000000815250816000908051906020019062000096929190620001a6565b508060019080519060200190620000af929190620001a6565b505050620000d2620000c6620000d860201b60201c565b620000e060201b60201c565b620002bb565b600033905090565b6000600760009054906101000a900473ffffffffffffffffffffffffffffffffffffffff16905081600760006101000a81548173ffffffffffffffffffffffffffffffffffffffff021916908373ffffffffffffffffffffffffffffffffffffffff1602179055508173ffffffffffffffffffffffffffffffffffffffff168173ffffffffffffffffffffffffffffffffffffffff167f8be0079c531659141344cd1fd0a4f28419497f9722a3daafe3b4186f6b6457e060405160405180910390a35050565b828054620001b49062000285565b90600052602060002090601f016020900481019282620001d8576000855562000224565b82601f10620001f357805160ff191683800117855562000224565b8280016001018555821562000224579182015b828111156200022357825182559160200191906001019062000206565b5b50905062000233919062000237565b5090565b5b808211156200025257600081600090555060010162000238565b5090565b7f4e487b7100000000000000000000000000000000000000000000000000000000600052602260045260246000fd5b600060028204905060018216806200029e57607f821691505b60208210811415620002b557620002b462000256565b5b50919050565b6131a180620002cb6000396000f3fe608060405234801561001057600080fd5b50600436106101215760003560e01c8063715018a6116100ad578063b88d4fde11610071578063b88d4fde1461031a578063c87b56dd14610336578063d85d3d2714610366578063e985e9c514610382578063f2fde38b146103b257610121565b8063715018a61461028857806371aee193146102925780638da5cb5b146102c257806395d89b41146102e0578063a22cb465146102fe57610121565b806323b872dd116100f457806323b872dd146101c057806330d871c6146101dc57806342842e0e1461020c5780636352211e1461022857806370a082311461025857610121565b806301ffc9a71461012657806306fdde0314610156578063081812fc14610174578063095ea7b3146101a4575b600080fd5b610140600480360381019061013b9190611e6d565b6103ce565b60405161014d9190611eb5565b60405180910390f35b61015e6104b0565b60405161016b9190611f69565b60405180910390f35b61018e60048036038101906101899190611fc1565b610542565b60405161019b919061202f565b60405180910390f35b6101be60048036038101906101b99190612076565b610588565b005b6101da60048036038101906101d591906120b6565b6106a0565b005b6101f660048036038101906101f1919061223e565b610700565b6040516102039190611f69565b60405180910390f35b610226600480360381019061022191906120b6565b610774565b005b610242600480360381019061023d9190611fc1565b610794565b60405161024f919061202f565b60405180910390f35b610272600480360381019061026d9190612287565b610846565b60405161027f91906122c3565b60405180910390f35b6102906108fe565b005b6102ac60048036038101906102a7919061223e565b610912565b6040516102b99190611f69565b60405180910390f35b6102ca610962565b6040516102d7919061202f565b60405180910390f35b6102e861098c565b6040516102f59190611f69565b60405180910390f35b6103186004803603810190610313919061230a565b610a1e565b005b610334600480360381019061032f91906123eb565b610a34565b005b610350600480360381019061034b9190611fc1565b610a96565b60405161035d9190611f69565b60405180910390f35b610380600480360381019061037b919061223e565b610ba9565b005b61039c6004803603810190610397919061246e565b610c34565b6040516103a99190611eb5565b60405180910390f35b6103cc60048036038101906103c79190612287565b610cc8565b005b60007f80ac58cd000000000000000000000000000000000000000000000000000000007bffffffffffffffffffffffffffffffffffffffffffffffffffffffff1916827bffffffffffffffffffffffffffffffffffffffffffffffffffffffff1916148061049957507f5b5e139f000000000000000000000000000000000000000000000000000000007bffffffffffffffffffffffffffffffffffffffffffffffffffffffff1916827bffffffffffffffffffffffffffffffffffffffffffffffffffffffff1916145b806104a957506104a882610d4c565b5b9050919050565b6060600080546104bf906124dd565b80601f01602080910402602001604051908101604052809291908181526020018280546104eb906124dd565b80156105385780601f1061050d57610100808354040283529160200191610538565b820191906000526020600020905b81548152906001019060200180831161051b57829003601f168201915b5050505050905090565b600061054d82610db6565b6004600083815260200190815260200160002060009054906101000a900473ffffffffffffffffffffffffffffffffffffffff169050919050565b600061059382610794565b90508073ffffffffffffffffffffffffffffffffffffffff168373ffffffffffffffffffffffffffffffffffffffff161415610604576040517f08c379a00000000000000000000000000000000000000000000000000000000081526004016105fb90612581565b60405180910390fd5b8073ffffffffffffffffffffffffffffffffffffffff16610623610e01565b73ffffffffffffffffffffffffffffffffffffffff16148061065257506106518161064c610e01565b610c34565b5b610691576040517f08c379a000000000000000000000000000000000000000000000000000000000815260040161068890612613565b60405180910390fd5b61069b8383610e09565b505050565b6106b16106ab610e01565b82610ec2565b6106f0576040517f08c379a00000000000000000000000000000000000000000000000000000000081526004016106e7906126a5565b60405180910390fd5b6106fb838383610f57565b505050565b606060006040518060400160405280601a81526020017f646174613a696d6167652f7376672b786d6c3b6261736536342c00000000000081525090506000610747846111be565b9050818160405160200161075c929190612701565b60405160208183030381529060405292505050919050565b61078f83838360405180602001604052806000815250610a34565b505050565b6000806002600084815260200190815260200160002060009054906101000a900473ffffffffffffffffffffffffffffffffffffffff169050600073ffffffffffffffffffffffffffffffffffffffff168173ffffffffffffffffffffffffffffffffffffffff16141561083d576040517f08c379a000000000000000000000000000000000000000000000000000000000815260040161083490612771565b60405180910390fd5b80915050919050565b60008073ffffffffffffffffffffffffffffffffffffffff168273ffffffffffffffffffffffffffffffffffffffff1614156108b7576040517f08c379a00000000000000000000000000000000000000000000000000000000081526004016108ae90612803565b60405180910390fd5b600360008373ffffffffffffffffffffffffffffffffffffffff1673ffffffffffffffffffffffffffffffffffffffff168152602001908152602001600020549050919050565b610906611356565b61091060006113d4565b565b606061093c826040516020016109289190612907565b6040516020818303038152906040526111be565b60405160200161094c9190612980565b6040516020818303038152906040529050919050565b6000600760009054906101000a900473ffffffffffffffffffffffffffffffffffffffff16905090565b60606001805461099b906124dd565b80601f01602080910402602001604051908101604052809291908181526020018280546109c7906124dd565b8015610a145780601f106109e957610100808354040283529160200191610a14565b820191906000526020600020905b8154815290600101906020018083116109f757829003601f168201915b5050505050905090565b610a30610a29610e01565b838361149a565b5050565b610a45610a3f610e01565b83610ec2565b610a84576040517f08c379a0000000000000000000000000000000000000000000000000000000008152600401610a7b906126a5565b60405180910390fd5b610a9084848484611607565b50505050565b6060610aa182610db6565b6000600660008481526020019081526020016000208054610ac1906124dd565b80601f0160208091040260200160405190810160405280929190818152602001828054610aed906124dd565b8015610b3a5780601f10610b0f57610100808354040283529160200191610b3a565b820191906000526020600020905b815481529060010190602001808311610b1d57829003601f168201915b505050505090506000610b4b611663565b9050600081511415610b61578192505050610ba4565b600082511115610b96578082604051602001610b7e929190612701565b60405160208183030381529060405292505050610ba4565b610b9f8461167a565b925050505b919050565b610bb1611356565b6000610bbc82610700565b90506000610bc982610912565b9050610bd560086116e2565b6000610be160086116f8565b9050610bed3382611706565b610bf78183611724565b7f176b02bb2d12439ff7a20b59f402cca16c76f50508b13ef3166a600eb719354a81604051610c2691906122c3565b60405180910390a150505050565b6000600560008473ffffffffffffffffffffffffffffffffffffffff1673ffffffffffffffffffffffffffffffffffffffff16815260200190815260200160002060008373ffffffffffffffffffffffffffffffffffffffff1673ffffffffffffffffffffffffffffffffffffffff16815260200190815260200160002060009054906101000a900460ff16905092915050565b610cd0611356565b600073ffffffffffffffffffffffffffffffffffffffff168173ffffffffffffffffffffffffffffffffffffffff161415610d40576040517f08c379a0000000000000000000000000000000000000000000000000000000008152600401610d3790612a14565b60405180910390fd5b610d49816113d4565b50565b60007f01ffc9a7000000000000000000000000000000000000000000000000000000007bffffffffffffffffffffffffffffffffffffffffffffffffffffffff1916827bffffffffffffffffffffffffffffffffffffffffffffffffffffffff1916149050919050565b610dbf81611798565b610dfe576040517f08c379a0000000000000000000000000000000000000000000000000000000008152600401610df590612771565b60405180910390fd5b50565b600033905090565b816004600083815260200190815260200160002060006101000a81548173ffffffffffffffffffffffffffffffffffffffff021916908373ffffffffffffffffffffffffffffffffffffffff160217905550808273ffffffffffffffffffffffffffffffffffffffff16610e7c83610794565b73ffffffffffffffffffffffffffffffffffffffff167f8c5be1e5ebec7d5bd14f71427d1e84f3dd0314c0f7b2291e5b200ac8c7c3b92560405160405180910390a45050565b600080610ece83610794565b90508073ffffffffffffffffffffffffffffffffffffffff168473ffffffffffffffffffffffffffffffffffffffff161480610f105750610f0f8185610c34565b5b80610f4e57508373ffffffffffffffffffffffffffffffffffffffff16610f3684610542565b73ffffffffffffffffffffffffffffffffffffffff16145b91505092915050565b8273ffffffffffffffffffffffffffffffffffffffff16610f7782610794565b73ffffffffffffffffffffffffffffffffffffffff1614610fcd576040517f08c379a0000000000000000000000000000000000000000000000000000000008152600401610fc490612aa6565b60405180910390fd5b600073ffffffffffffffffffffffffffffffffffffffff168273ffffffffffffffffffffffffffffffffffffffff16141561103d576040517f08c379a000000000000000000000000000000000000000000000000000000000815260040161103490612b38565b60405180910390fd5b611048838383611804565b611053600082610e09565b6001600360008573ffffffffffffffffffffffffffffffffffffffff1673ffffffffffffffffffffffffffffffffffffffff16815260200190815260200160002060008282546110a39190612b87565b925050819055506001600360008473ffffffffffffffffffffffffffffffffffffffff1673ffffffffffffffffffffffffffffffffffffffff16815260200190815260200160002060008282546110fa9190612bbb565b92505081905550816002600083815260200190815260200160002060006101000a81548173ffffffffffffffffffffffffffffffffffffffff021916908373ffffffffffffffffffffffffffffffffffffffff160217905550808273ffffffffffffffffffffffffffffffffffffffff168473ffffffffffffffffffffffffffffffffffffffff167fddf252ad1be2c89b69c2b068fc378daa952ba7f163c4a11628f55a4df523b3ef60405160405180910390a46111b9838383611809565b505050565b606060008251905060008114156111e75760405180602001604052806000815250915050611351565b600060036002836111f89190612bbb565b6112029190612c40565b600461120e9190612c71565b9050600060208261121f9190612bbb565b67ffffffffffffffff81111561123857611237612113565b5b6040519080825280601f01601f19166020018201604052801561126a5781602001600182028036833780820191505090505b509050600060405180606001604052806040815260200161312c604091399050600181016020830160005b8681101561130e5760038101905062ffffff818a015116603f8160121c168401518060081b905060ff603f83600c1c1686015116810190508060081b905060ff603f8360061c1686015116810190508060081b905060ff603f831686015116810190508060e01b90508084526004840193505050611295565b506003860660018114611328576002811461133857611343565b613d3d60f01b6002830352611343565b603d60f81b60018303525b508484525050819450505050505b919050565b61135e610e01565b73ffffffffffffffffffffffffffffffffffffffff1661137c610962565b73ffffffffffffffffffffffffffffffffffffffff16146113d2576040517f08c379a00000000000000000000000000000000000000000000000000000000081526004016113c990612d17565b60405180910390fd5b565b6000600760009054906101000a900473ffffffffffffffffffffffffffffffffffffffff16905081600760006101000a81548173ffffffffffffffffffffffffffffffffffffffff021916908373ffffffffffffffffffffffffffffffffffffffff1602179055508173ffffffffffffffffffffffffffffffffffffffff168173ffffffffffffffffffffffffffffffffffffffff167f8be0079c531659141344cd1fd0a4f28419497f9722a3daafe3b4186f6b6457e060405160405180910390a35050565b8173ffffffffffffffffffffffffffffffffffffffff168373ffffffffffffffffffffffffffffffffffffffff161415611509576040517f08c379a000000000000000000000000000000000000000000000000000000000815260040161150090612d83565b60405180910390fd5b80600560008573ffffffffffffffffffffffffffffffffffffffff1673ffffffffffffffffffffffffffffffffffffffff16815260200190815260200160002060008473ffffffffffffffffffffffffffffffffffffffff1673ffffffffffffffffffffffffffffffffffffffff16815260200190815260200160002060006101000a81548160ff0219169083151502179055508173ffffffffffffffffffffffffffffffffffffffff168373ffffffffffffffffffffffffffffffffffffffff167f17307eab39ab6107e8899845ad3d59bd9653f200f220920489ca2b5937696c31836040516115fa9190611eb5565b60405180910390a3505050565b611612848484610f57565b61161e8484848461180e565b61165d576040517f08c379a000000000000000000000000000000000000000000000000000000000815260040161165490612e15565b60405180910390fd5b50505050565b606060405180602001604052806000815250905090565b606061168582610db6565b600061168f611663565b905060008151116116af57604051806020016040528060008152506116da565b806116b9846119a5565b6040516020016116ca929190612701565b6040516020818303038152906040525b915050919050565b6001816000016000828254019250508190555050565b600081600001549050919050565b611720828260405180602001604052806000815250611b06565b5050565b61172d82611798565b61176c576040517f08c379a000000000000000000000000000000000000000000000000000000000815260040161176390612ea7565b60405180910390fd5b80600660008481526020019081526020016000209080519060200190611793929190611d5e565b505050565b60008073ffffffffffffffffffffffffffffffffffffffff166002600084815260200190815260200160002060009054906101000a900473ffffffffffffffffffffffffffffffffffffffff1673ffffffffffffffffffffffffffffffffffffffff1614159050919050565b505050565b505050565b600061182f8473ffffffffffffffffffffffffffffffffffffffff16611b61565b15611998578373ffffffffffffffffffffffffffffffffffffffff1663150b7a02611858610e01565b8786866040518563ffffffff1660e01b815260040161187a9493929190612f1c565b602060405180830381600087803b15801561189457600080fd5b505af19250505080156118c557506040513d601f19601f820116820180604052508101906118c29190612f7d565b60015b611948573d80600081146118f5576040519150601f19603f3d011682016040523d82523d6000602084013e6118fa565b606091505b50600081511415611940576040517f08c379a000000000000000000000000000000000000000000000000000000000815260040161193790612e15565b60405180910390fd5b805181602001fd5b63150b7a0260e01b7bffffffffffffffffffffffffffffffffffffffffffffffffffffffff1916817bffffffffffffffffffffffffffffffffffffffffffffffffffffffff19161491505061199d565b600190505b949350505050565b606060008214156119ed576040518060400160405280600181526020017f30000000000000000000000000000000000000000000000000000000000000008152509050611b01565b600082905060005b60008214611a1f578080611a0890612faa565b915050600a82611a189190612c40565b91506119f5565b60008167ffffffffffffffff811115611a3b57611a3a612113565b5b6040519080825280601f01601f191660200182016040528015611a6d5781602001600182028036833780820191505090505b5090505b60008514611afa57600182611a869190612b87565b9150600a85611a959190612ff3565b6030611aa19190612bbb565b60f81b818381518110611ab757611ab6613024565b5b60200101907effffffffffffffffffffffffffffffffffffffffffffffffffffffffffffff1916908160001a905350600a85611af39190612c40565b9450611a71565b8093505050505b919050565b611b108383611b84565b611b1d600084848461180e565b611b5c576040517f08c379a0000000000000000000000000000000000000000000000000000000008152600401611b5390612e15565b60405180910390fd5b505050565b6000808273ffffffffffffffffffffffffffffffffffffffff163b119050919050565b600073ffffffffffffffffffffffffffffffffffffffff168273ffffffffffffffffffffffffffffffffffffffff161415611bf4576040517f08c379a0000000000000000000000000000000000000000000000000000000008152600401611beb9061309f565b60405180910390fd5b611bfd81611798565b15611c3d576040517f08c379a0000000000000000000000000000000000000000000000000000000008152600401611c349061310b565b60405180910390fd5b611c4960008383611804565b6001600360008473ffffffffffffffffffffffffffffffffffffffff1673ffffffffffffffffffffffffffffffffffffffff1681526020019081526020016000206000828254611c999190612bbb565b92505081905550816002600083815260200190815260200160002060006101000a81548173ffffffffffffffffffffffffffffffffffffffff021916908373ffffffffffffffffffffffffffffffffffffffff160217905550808273ffffffffffffffffffffffffffffffffffffffff16600073ffffffffffffffffffffffffffffffffffffffff167fddf252ad1be2c89b69c2b068fc378daa952ba7f163c4a11628f55a4df523b3ef60405160405180910390a4611d5a60008383611809565b5050565b828054611d6a906124dd565b90600052602060002090601f016020900481019282611d8c5760008555611dd3565b82601f10611da557805160ff1916838001178555611dd3565b82800160010185558215611dd3579182015b82811115611dd2578251825591602001919060010190611db7565b5b509050611de09190611de4565b5090565b5b80821115611dfd576000816000905550600101611de5565b5090565b6000604051905090565b600080fd5b600080fd5b60007fffffffff0000000000000000000000000000000000000000000000000000000082169050919050565b611e4a81611e15565b8114611e5557600080fd5b50565b600081359050611e6781611e41565b92915050565b600060208284031215611e8357611e82611e0b565b5b6000611e9184828501611e58565b91505092915050565b60008115159050919050565b611eaf81611e9a565b82525050565b6000602082019050611eca6000830184611ea6565b92915050565b600081519050919050565b600082825260208201905092915050565b60005b83811015611f0a578082015181840152602081019050611eef565b83811115611f19576000848401525b50505050565b6000601f19601f8301169050919050565b6000611f3b82611ed0565b611f458185611edb565b9350611f55818560208601611eec565b611f5e81611f1f565b840191505092915050565b60006020820190508181036000830152611f838184611f30565b905092915050565b6000819050919050565b611f9e81611f8b565b8114611fa957600080fd5b50565b600081359050611fbb81611f95565b92915050565b600060208284031215611fd757611fd6611e0b565b5b6000611fe584828501611fac565b91505092915050565b600073ffffffffffffffffffffffffffffffffffffffff82169050919050565b600061201982611fee565b9050919050565b6120298161200e565b82525050565b60006020820190506120446000830184612020565b92915050565b6120538161200e565b811461205e57600080fd5b50565b6000813590506120708161204a565b92915050565b6000806040838503121561208d5761208c611e0b565b5b600061209b85828601612061565b92505060206120ac85828601611fac565b9150509250929050565b6000806000606084860312156120cf576120ce611e0b565b5b60006120dd86828701612061565b93505060206120ee86828701612061565b92505060406120ff86828701611fac565b9150509250925092565b600080fd5b600080fd5b7f4e487b7100000000000000000000000000000000000000000000000000000000600052604160045260246000fd5b61214b82611f1f565b810181811067ffffffffffffffff8211171561216a57612169612113565b5b80604052505050565b600061217d611e01565b90506121898282612142565b919050565b600067ffffffffffffffff8211156121a9576121a8612113565b5b6121b282611f1f565b9050602081019050919050565b82818337600083830152505050565b60006121e16121dc8461218e565b612173565b9050828152602081018484840111156121fd576121fc61210e565b5b6122088482856121bf565b509392505050565b600082601f83011261222557612224612109565b5b81356122358482602086016121ce565b91505092915050565b60006020828403121561225457612253611e0b565b5b600082013567ffffffffffffffff81111561227257612271611e10565b5b61227e84828501612210565b91505092915050565b60006020828403121561229d5761229c611e0b565b5b60006122ab84828501612061565b91505092915050565b6122bd81611f8b565b82525050565b60006020820190506122d860008301846122b4565b92915050565b6122e781611e9a565b81146122f257600080fd5b50565b600081359050612304816122de565b92915050565b6000806040838503121561232157612320611e0b565b5b600061232f85828601612061565b9250506020612340858286016122f5565b9150509250929050565b600067ffffffffffffffff82111561236557612364612113565b5b61236e82611f1f565b9050602081019050919050565b600061238e6123898461234a565b612173565b9050828152602081018484840111156123aa576123a961210e565b5b6123b58482856121bf565b509392505050565b600082601f8301126123d2576123d1612109565b5b81356123e284826020860161237b565b91505092915050565b6000806000806080858703121561240557612404611e0b565b5b600061241387828801612061565b945050602061242487828801612061565b935050604061243587828801611fac565b925050606085013567ffffffffffffffff81111561245657612455611e10565b5b612462878288016123bd565b91505092959194509250565b6000806040838503121561248557612484611e0b565b5b600061249385828601612061565b92505060206124a485828601612061565b9150509250929050565b7f4e487b7100000000000000000000000000000000000000000000000000000000600052602260045260246000fd5b600060028204905060018216806124f557607f821691505b60208210811415612509576125086124ae565b5b50919050565b7f4552433732313a20617070726f76616c20746f2063757272656e74206f776e6560008201527f7200000000000000000000000000000000000000000000000000000000000000602082015250565b600061256b602183611edb565b91506125768261250f565b604082019050919050565b6000602082019050818103600083015261259a8161255e565b9050919050565b7f4552433732313a20617070726f76652063616c6c6572206973206e6f7420746f60008201527f6b656e206f776e6572206e6f7220617070726f76656420666f7220616c6c0000602082015250565b60006125fd603e83611edb565b9150612608826125a1565b604082019050919050565b6000602082019050818103600083015261262c816125f0565b9050919050565b7f4552433732313a2063616c6c6572206973206e6f7420746f6b656e206f776e6560008201527f72206e6f7220617070726f766564000000000000000000000000000000000000602082015250565b600061268f602e83611edb565b915061269a82612633565b604082019050919050565b600060208201905081810360008301526126be81612682565b9050919050565b600081905092915050565b60006126db82611ed0565b6126e581856126c5565b93506126f5818560208601611eec565b80840191505092915050565b600061270d82856126d0565b915061271982846126d0565b91508190509392505050565b7f4552433732313a20696e76616c696420746f6b656e2049440000000000000000600082015250565b600061275b601883611edb565b915061276682612725565b602082019050919050565b6000602082019050818103600083015261278a8161274e565b9050919050565b7f4552433732313a2061646472657373207a65726f206973206e6f74206120766160008201527f6c6964206f776e65720000000000000000000000000000000000000000000000602082015250565b60006127ed602983611edb565b91506127f882612791565b604082019050919050565b6000602082019050818103600083015261281c816127e0565b9050919050565b7f7b226e616d65223a2022424c43204f4e2d434841494e4544222c20226465736360008201527f72697074696f6e223a2022412073696d706c6520535647206261736564206f6e60208201527f2d636861696e204e4654222c2022696d616765223a2200000000000000000000604082015250565b60006128a56056836126c5565b91506128b082612823565b605682019050919050565b7f227d000000000000000000000000000000000000000000000000000000000000600082015250565b60006128f16002836126c5565b91506128fc826128bb565b600282019050919050565b600061291282612898565b915061291e82846126d0565b9150612929826128e4565b915081905092915050565b7f646174613a6170706c69636174696f6e2f6a736f6e3b6261736536342c000000600082015250565b600061296a601d836126c5565b915061297582612934565b601d82019050919050565b600061298b8261295d565b915061299782846126d0565b915081905092915050565b7f4f776e61626c653a206e6577206f776e657220697320746865207a65726f206160008201527f6464726573730000000000000000000000000000000000000000000000000000602082015250565b60006129fe602683611edb565b9150612a09826129a2565b604082019050919050565b60006020820190508181036000830152612a2d816129f1565b9050919050565b7f4552433732313a207472616e736665722066726f6d20696e636f72726563742060008201527f6f776e6572000000000000000000000000000000000000000000000000000000602082015250565b6000612a90602583611edb565b9150612a9b82612a34565b604082019050919050565b60006020820190508181036000830152612abf81612a83565b9050919050565b7f4552433732313a207472616e7366657220746f20746865207a65726f2061646460008201527f7265737300000000000000000000000000000000000000000000000000000000602082015250565b6000612b22602483611edb565b9150612b2d82612ac6565b604082019050919050565b60006020820190508181036000830152612b5181612b15565b9050919050565b7f4e487b7100000000000000000000000000000000000000000000000000000000600052601160045260246000fd5b6000612b9282611f8b565b9150612b9d83611f8b565b925082821015612bb057612baf612b58565b5b828203905092915050565b6000612bc682611f8b565b9150612bd183611f8b565b9250827fffffffffffffffffffffffffffffffffffffffffffffffffffffffffffffffff03821115612c0657612c05612b58565b5b828201905092915050565b7f4e487b7100000000000000000000000000000000000000000000000000000000600052601260045260246000fd5b6000612c4b82611f8b565b9150612c5683611f8b565b925082612c6657612c65612c11565b5b828204905092915050565b6000612c7c82611f8b565b9150612c8783611f8b565b9250817fffffffffffffffffffffffffffffffffffffffffffffffffffffffffffffffff0483118215151615612cc057612cbf612b58565b5b828202905092915050565b7f4f776e61626c653a2063616c6c6572206973206e6f7420746865206f776e6572600082015250565b6000612d01602083611edb565b9150612d0c82612ccb565b602082019050919050565b60006020820190508181036000830152612d3081612cf4565b9050919050565b7f4552433732313a20617070726f766520746f2063616c6c657200000000000000600082015250565b6000612d6d601983611edb565b9150612d7882612d37565b602082019050919050565b60006020820190508181036000830152612d9c81612d60565b9050919050565b7f4552433732313a207472616e7366657220746f206e6f6e20455243373231526560008201527f63656976657220696d706c656d656e7465720000000000000000000000000000602082015250565b6000612dff603283611edb565b9150612e0a82612da3565b604082019050919050565b60006020820190508181036000830152612e2e81612df2565b9050919050565b7f45524337323155524953746f726167653a2055524920736574206f66206e6f6e60008201527f6578697374656e7420746f6b656e000000000000000000000000000000000000602082015250565b6000612e91602e83611edb565b9150612e9c82612e35565b604082019050919050565b60006020820190508181036000830152612ec081612e84565b9050919050565b600081519050919050565b600082825260208201905092915050565b6000612eee82612ec7565b612ef88185612ed2565b9350612f08818560208601611eec565b612f1181611f1f565b840191505092915050565b6000608082019050612f316000830187612020565b612f3e6020830186612020565b612f4b60408301856122b4565b8181036060830152612f5d8184612ee3565b905095945050505050565b600081519050612f7781611e41565b92915050565b600060208284031215612f9357612f92611e0b565b5b6000612fa184828501612f68565b91505092915050565b6000612fb582611f8b565b91507fffffffffffffffffffffffffffffffffffffffffffffffffffffffffffffffff821415612fe857612fe7612b58565b5b600182019050919050565b6000612ffe82611f8b565b915061300983611f8b565b92508261301957613018612c11565b5b828206905092915050565b7f4e487b7100000000000000000000000000000000000000000000000000000000600052603260045260246000fd5b7f4552433732313a206d696e7420746f20746865207a65726f2061646472657373600082015250565b6000613089602083611edb565b915061309482613053565b602082019050919050565b600060208201905081810360008301526130b88161307c565b9050919050565b7f4552433732313a20746f6b656e20616c7265616479206d696e74656400000000600082015250565b60006130f5601c83611edb565b9150613100826130bf565b602082019050919050565b60006020820190508181036000830152613124816130e8565b905091905056fe4142434445464748494a4b4c4d4e4f505152535455565758595a6162636465666768696a6b6c6d6e6f707172737475767778797a303132333435363738392b2fa2646970667358221220c8c8c0d364d4061e1281966fe347f5622b4529fa5f9b0499820f53d7cffc734e64736f6c63430008090033",
  "linkReferences": {},
  "deployedLinkReferences": {}
}